{
  "contractName": "Auth",
  "abi": [
    {
      "inputs": [
        {
          "internalType": "address",
          "name": "deployer",
          "type": "address"
        }
      ],
      "stateMutability": "nonpayable",
      "type": "constructor"
    },
    {
      "inputs": [
        {
          "internalType": "address",
          "name": "user",
          "type": "address"
        }
      ],
      "name": "isAdministrator",
      "outputs": [
        {
          "internalType": "bool",
          "name": "",
          "type": "bool"
        }
      ],
      "stateMutability": "view",
      "type": "function"
    }
  ],
  "bytecode": "0x608060405234801561001057600080fd5b506040516102e93803806102e9833981810160405281019061003291906100db565b806000806101000a81548173ffffffffffffffffffffffffffffffffffffffff021916908373ffffffffffffffffffffffffffffffffffffffff16021790555050610108565b600080fd5b600073ffffffffffffffffffffffffffffffffffffffff82169050919050565b60006100a88261007d565b9050919050565b6100b88161009d565b81146100c357600080fd5b50565b6000815190506100d5816100af565b92915050565b6000602082840312156100f1576100f0610078565b5b60006100ff848285016100c6565b91505092915050565b6101d2806101176000396000f3fe608060405234801561001057600080fd5b5060043610610048576000357c0100000000000000000000000000000000000000000000000000000000900480630a2eb3011461004d575b600080fd5b61006760048036038101906100629190610139565b61007d565b6040516100749190610181565b60405180910390f35b60008060009054906101000a900473ffffffffffffffffffffffffffffffffffffffff1673ffffffffffffffffffffffffffffffffffffffff168273ffffffffffffffffffffffffffffffffffffffff16149050919050565b600080fd5b600073ffffffffffffffffffffffffffffffffffffffff82169050919050565b6000610106826100db565b9050919050565b610116816100fb565b811461012157600080fd5b50565b6000813590506101338161010d565b92915050565b60006020828403121561014f5761014e6100d6565b5b600061015d84828501610124565b91505092915050565b60008115159050919050565b61017b81610166565b82525050565b60006020820190506101966000830184610172565b9291505056fea264697066735822122077d41f0a1b9f1ec6f131b3479911ecabdefb9ea879b1cb32b42aefdc59396e8964736f6c63430008090033",
  "immutableReferences": {},
  "source": "// SPDX-License-Identifier: MIT \npragma solidity >=0.5.0 <0.9.0;\n\ncontract Auth{\n    address private _administrator;\n\n    constructor(address deployer) {\n        // Make the deployer of the contract the administrator\n        _administrator = deployer;\n    }\n\n    function isAdministrator(address user) public view returns (bool) {\n        return user == _administrator;\n    }\n}",
  "sourcePath": "/home/andres/Documents/BLOCKCHAIN/Project1/workspace/OpenZepelinTutorial/contracts/access-control/Auth.sol",
  "compiler": {
    "name": "solc",
    "version": "0.8.9+commit.e5eed63a.Emscripten.clang"
  },
  "schemaVersion": "3.4.3",
  "updatedAt": "2021-11-02T14:09:15.439Z",
  "devdoc": {
    "kind": "dev",
    "methods": {},
    "version": 1
  },
  "userdoc": {
    "kind": "user",
    "methods": {},
    "version": 1
  }
}