{
  "contractName": "Box",
  "abi": [
    {
      "anonymous": false,
      "inputs": [
        {
          "indexed": false,
          "internalType": "uint256",
          "name": "value",
          "type": "uint256"
        }
      ],
      "name": "ValueChanged",
      "type": "event"
    },
    {
      "constant": false,
      "inputs": [
        {
          "internalType": "uint256",
          "name": "value",
          "type": "uint256"
        }
      ],
      "name": "store",
      "outputs": [],
      "payable": false,
      "stateMutability": "nonpayable",
      "type": "function"
    },
    {
      "constant": true,
      "inputs": [],
      "name": "retrive",
      "outputs": [
        {
          "internalType": "uint256",
          "name": "",
          "type": "uint256"
        }
      ],
      "payable": false,
      "stateMutability": "view",
      "type": "function"
    }
  ],
  "bytecode": "0x608060405234801561001057600080fd5b5060fd8061001f6000396000f3fe6080604052348015600f57600080fd5b506004361060325760003560e01c80636057361d146037578063a6b7fc5b146062575b600080fd5b606060048036036020811015604b57600080fd5b8101908080359060200190929190505050607e565b005b606860bf565b6040518082815260200191505060405180910390f35b806000819055507f93fe6d397c74fdf1402a8b72e47b68512f0510d7b98a4bc4cbdf6ac7108b3c59816040518082815260200191505060405180910390a150565b6000805490509056fea265627a7a72315820b7d755ead056ad7c7305fc57f64c8e548ad360141a077fca6974798828cab06764736f6c63430005100032",
  "source": "// SPDX-License-Identifier: MIT \npragma solidity >=0.5.0 <0.9.0;\n\ncontract Box {\n    uint256 private _value;\n\n    // Emitted when the stored value changes\n    event ValueChanged(uint256 value);\n\n    // Store a new value in the contractj\n    function store(uint256 value) public {\n        _value = value;\n        emit ValueChanged(value);\n    }\n\n    // Reads the last stored value\n    function retrive() public view returns (uint256) {\n        return _value;\n    }\n}\n",
  "sourcePath": "/home/andres/Documents/BLOCKCHAIN/Project1/workspace/OpenZepelinTutorial/contracts/Box.sol",
  "compiler": {
    "name": "solc",
    "version": "0.5.16+commit.9c3226ce.Emscripten.clang"
  },
  "schemaVersion": "3.4.3",
  "updatedAt": "2021-11-02T12:27:27.138Z",
  "devdoc": {
    "methods": {}
  },
  "userdoc": {
    "methods": {}
  }
}