{
  "contractName": "Box",
  "abi": [
    {
      "anonymous": false,
      "inputs": [
        {
          "indexed": true,
          "internalType": "address",
          "name": "previousOwner",
          "type": "address"
        },
        {
          "indexed": true,
          "internalType": "address",
          "name": "newOwner",
          "type": "address"
        }
      ],
      "name": "OwnershipTransferred",
      "type": "event"
    },
    {
      "anonymous": false,
      "inputs": [
        {
          "indexed": false,
          "internalType": "uint256",
          "name": "value",
          "type": "uint256"
        }
      ],
      "name": "ValueChanged",
      "type": "event"
    },
    {
      "inputs": [],
      "name": "owner",
      "outputs": [
        {
          "internalType": "address",
          "name": "",
          "type": "address"
        }
      ],
      "stateMutability": "view",
      "type": "function",
      "constant": true
    },
    {
      "inputs": [],
      "name": "renounceOwnership",
      "outputs": [],
      "stateMutability": "nonpayable",
      "type": "function"
    },
    {
      "inputs": [
        {
          "internalType": "address",
          "name": "newOwner",
          "type": "address"
        }
      ],
      "name": "transferOwnership",
      "outputs": [],
      "stateMutability": "nonpayable",
      "type": "function"
    },
    {
      "inputs": [
        {
          "internalType": "uint256",
          "name": "value",
          "type": "uint256"
        }
      ],
      "name": "store",
      "outputs": [],
      "stateMutability": "nonpayable",
      "type": "function"
    },
    {
      "inputs": [],
      "name": "retrive",
      "outputs": [
        {
          "internalType": "uint256",
          "name": "",
          "type": "uint256"
        }
      ],
      "stateMutability": "view",
      "type": "function",
      "constant": true
    }
  ],
  "bytecode": "0x608060405234801561001057600080fd5b5061003f61002b610044640100000000026401000000009004565b61004c640100000000026401000000009004565b610110565b600033905090565b60008060009054906101000a900473ffffffffffffffffffffffffffffffffffffffff169050816000806101000a81548173ffffffffffffffffffffffffffffffffffffffff021916908373ffffffffffffffffffffffffffffffffffffffff1602179055508173ffffffffffffffffffffffffffffffffffffffff168173ffffffffffffffffffffffffffffffffffffffff167f8be0079c531659141344cd1fd0a4f28419497f9722a3daafe3b4186f6b6457e060405160405180910390a35050565b6106bf8061011f6000396000f3fe608060405234801561001057600080fd5b5060043610610074576000357c0100000000000000000000000000000000000000000000000000000000900480636057361d14610079578063715018a6146100955780638da5cb5b1461009f578063a6b7fc5b146100bd578063f2fde38b146100db575b600080fd5b610093600480360381019061008e919061046e565b6100f7565b005b61009d6101b4565b005b6100a761023c565b6040516100b491906104dc565b60405180910390f35b6100c5610265565b6040516100d29190610506565b60405180910390f35b6100f560048036038101906100f0919061054d565b61026f565b005b6100ff610367565b73ffffffffffffffffffffffffffffffffffffffff1661011d61023c565b73ffffffffffffffffffffffffffffffffffffffff1614610173576040517f08c379a000000000000000000000000000000000000000000000000000000000815260040161016a906105d7565b60405180910390fd5b806001819055507f93fe6d397c74fdf1402a8b72e47b68512f0510d7b98a4bc4cbdf6ac7108b3c59816040516101a99190610506565b60405180910390a150565b6101bc610367565b73ffffffffffffffffffffffffffffffffffffffff166101da61023c565b73ffffffffffffffffffffffffffffffffffffffff1614610230576040517f08c379a0000000000000000000000000000000000000000000000000000000008152600401610227906105d7565b60405180910390fd5b61023a600061036f565b565b60008060009054906101000a900473ffffffffffffffffffffffffffffffffffffffff16905090565b6000600154905090565b610277610367565b73ffffffffffffffffffffffffffffffffffffffff1661029561023c565b73ffffffffffffffffffffffffffffffffffffffff16146102eb576040517f08c379a00000000000000000000000000000000000000000000000000000000081526004016102e2906105d7565b60405180910390fd5b600073ffffffffffffffffffffffffffffffffffffffff168173ffffffffffffffffffffffffffffffffffffffff16141561035b576040517f08c379a000000000000000000000000000000000000000000000000000000000815260040161035290610669565b60405180910390fd5b6103648161036f565b50565b600033905090565b60008060009054906101000a900473ffffffffffffffffffffffffffffffffffffffff169050816000806101000a81548173ffffffffffffffffffffffffffffffffffffffff021916908373ffffffffffffffffffffffffffffffffffffffff1602179055508173ffffffffffffffffffffffffffffffffffffffff168173ffffffffffffffffffffffffffffffffffffffff167f8be0079c531659141344cd1fd0a4f28419497f9722a3daafe3b4186f6b6457e060405160405180910390a35050565b600080fd5b6000819050919050565b61044b81610438565b811461045657600080fd5b50565b60008135905061046881610442565b92915050565b60006020828403121561048457610483610433565b5b600061049284828501610459565b91505092915050565b600073ffffffffffffffffffffffffffffffffffffffff82169050919050565b60006104c68261049b565b9050919050565b6104d6816104bb565b82525050565b60006020820190506104f160008301846104cd565b92915050565b61050081610438565b82525050565b600060208201905061051b60008301846104f7565b92915050565b61052a816104bb565b811461053557600080fd5b50565b60008135905061054781610521565b92915050565b60006020828403121561056357610562610433565b5b600061057184828501610538565b91505092915050565b600082825260208201905092915050565b7f4f776e61626c653a2063616c6c6572206973206e6f7420746865206f776e6572600082015250565b60006105c160208361057a565b91506105cc8261058b565b602082019050919050565b600060208201905081810360008301526105f0816105b4565b9050919050565b7f4f776e61626c653a206e6577206f776e657220697320746865207a65726f206160008201527f6464726573730000000000000000000000000000000000000000000000000000602082015250565b600061065360268361057a565b915061065e826105f7565b604082019050919050565b6000602082019050818103600083015261068281610646565b905091905056fea2646970667358221220d217c8a7cbf0052f558f261af5ebfc24d44b42d161ea73906518e5b005fad95364736f6c63430008090033",
  "immutableReferences": {},
  "source": "// SPDX-License-Identifier: MIT \npragma solidity >=0.5.0 <0.9.0;\n\n// Import Ownable from the OpenZeppelin Contracts library\nimport \"@openzeppelin/contracts/access/Ownable.sol\";\n\ncontract Box is Ownable {\n    uint256 private _value;\n\n    // Emitted when the stored value changes\n    event ValueChanged(uint256 value);\n\n    // Store a new value in the contract\n    function store(uint256 value) public onlyOwner {\n        _value = value;\n        emit ValueChanged(value);\n    }\n\n    // Reads the last stored value\n    function retrive() public view returns (uint256) {\n        return _value;\n    }\n}\n",
  "sourcePath": "/home/andres/Documents/BLOCKCHAIN/Project1/workspace/OpenZepelinTutorial/contracts/Box.sol",
  "compiler": {
    "name": "solc",
    "version": "0.8.9+commit.e5eed63a.Emscripten.clang"
  },
  "schemaVersion": "3.4.3",
  "updatedAt": "2021-11-02T14:09:20.547Z",
  "networkType": "ethereum",
  "devdoc": {
    "kind": "dev",
    "methods": {
      "owner()": {
        "details": "Returns the address of the current owner."
      },
      "renounceOwnership()": {
        "details": "Leaves the contract without owner. It will not be possible to call `onlyOwner` functions anymore. Can only be called by the current owner. NOTE: Renouncing ownership will leave the contract without an owner, thereby removing any functionality that is only available to the owner."
      },
      "transferOwnership(address)": {
        "details": "Transfers ownership of the contract to a new account (`newOwner`). Can only be called by the current owner."
      }
    },
    "version": 1
  },
  "userdoc": {
    "kind": "user",
    "methods": {},
    "version": 1
  }
}